:020000040800F2
:10000000801B002049090008B12D000835090008AF
:10001000350900083509000835090008000000000E
:100020000000000000000000000000000D0A0008B1
:100030003509000800000000A9090008511800084F
:100040009D0B00089D0B00089D0B00089D0B0008F0
:100050009D0B00089D0B00089D0B00089D0B0008E0
:100060009D0B00089D0B00089D0B00089D0B0008D0
:100070009D0B00089D0B00089D0B00089D0B0008C0
:100080009D0B00089D0B00089D0B00089D0B0008B0
:100090009D0B00089D0B00089D0B00089D0B0008A0
:1000A0009D0B00089D0B00089D0B00089D0B000890
:1000B0009D0B00089D0B00089D0B00089D0B000880
:1000C0009D0B00089D0B00089D0B00089D0B000870
:1000D0009D0B00089D0B00089D0B00089D0B000860
:1000E0009D0B00089D0B00089D0B00089D0B000850
:1000F0009D0B00089D0B00089D0B00089D0B000840
:100100009D0B00089D0B00089D0B00089D0B00082F
:100110009D0B00089D0B00089D0B00089D0B00081F
:100120009D0B00089D0B00089D0B00089D0B00080F
:100130009D0B00089D0B00089D0B00089D0B0008FF
:100140009D0B00089D0B00089D0B00089D0B0008EF
:100150009D0B00089D0B00089D0B00089D0B0008DF
:100160009D0B00089D0B00089D0B00089D0B0008CF
:100170009D0B00089D0B00089D0B00089D0B0008BF
:100180009D0B00089D0B00089D0B00089D0B0008AF
:080190009D0B00089D0B000807
:1001980053B94AB9002908BF00281CBF4FF0FF31E6
:1001A8004FF0FF3000F00CB8ADF1080C6DE904CE4B
:1001B80000F008F8DDF804E0DDE9022304B0704738
:1001C800704700BF2DE9F04786468C460846089ED2
:1001D800154674461946002B40F0C2808542B2FA93
:1001E80082F245D94AB1C2F1200300FA02FC2EFA84
:1001F80003F3954043EA0C0C94404FEA154EA8B21D
:10020800BCFBFEF8230C0EFB18CC08FB00F943EAF4
:100218000C43994528D9EB1808F1FF3704D29945C2
:1002280002D9A8F102072B44A3EB0903A4B2B3FB3C
:10023800FEFC0EFB1C330CFB00F044EA0344A04216
:1002480014D92C190CF1FF3304D2A04202D9ACF115
:1002580002032C44241A43EA07401EB1D440002369
:1002680034607360BDE8F0874746DDE76346F1E731
:1002780092BB431B01214FEA154EAFB2B3FBFEFC04
:10028800200C0EFB1C330CFB07F840EA034398458F
:1002980062D9EB180CF1FF3004D2984502D9ACF1C1
:1002A80002002B44A3EB0803A4B2B3FBFEFC0EFB35
:1002B8001C330CFB07F744EA0344A7424ED92C1918
:1002C8000CF1FF3304D2A74202D9ACF102032C444B
:1002D800E41B43EA0040C0E7C2F1200320FA03F11F
:1002E800954090402EFA03F303434FEA154EAFB200
:1002F800B1FBFEFC0EFB1C10190C0CFB07F841EAC5
:100308000041884504FA02F422D969180CF1FF303B
:1003180004D2884502D9ACF102002944A1EB0801B6
:100328009BB2B1FBFEFC0EFB1C110CFB07F743EA6A
:1003380001439F420ED9EB180CF1FF3104D29F42C2
:1003480002D9ACF102012B44DB1B41EA004192E7E0
:100358006046E3E76146F7E76046A3E76346B7E729
:10036800834206D916B9002108467BE7C6E900E0B2
:10037800F9E7B3FA83F78FB9834201D3724508D8F6
:10038800BEEB020460EB030301209C461EB900216A
:1003980068E73846FAE7C6E9004CF8E7C7F1200CE9
:1003A800BB4022FA0CF41C432EFA0CF120FA0CF391
:1003B800B84001434FEA14490EFA07F5B3FBF9F8C0
:1003C8001FFA84FE09FB18300B0C08FB0EFA43EAEF
:1003D80000439A4502FA07F240D9E31808F1FF30C2
:1003E80004D29A4502D9A8F102002344A3EB0A03D8
:1003F80089B2B3FBF9F809FB183308FB0EFE41EA92
:1004080003418E452CD9611808F1FF3304D28E457B
:1004180002D9A8F10203214443EA0040A0FB029854
:10042800A1EB0E014145CE46434602D306D14D45C8
:1004380004D2B9EB020E68EB04030138002EA6D0F3
:10044800B5EB0E0261EB030101FA0CFC22FA07F38B
:100458004CEA0303F940C6E9003198E74046C5E78E
:100468004346D9E738B5064D012128464C1C02F011
:1004780083FC4CF2503002F0FBFF2146F5E700BF49
:10048800963E00082DE9F041114D124E124FDFF84B
:100498004C80284602F070FC304602F06DFC38466D
:1004A80002F06AFC01242146404602F065FC4FF444
:1004B800FA600021013403F068F8062CF3D10848EB
:1004C80002F05AFC002142F2107003F05EF8DEE7F9
:1004D800A03E0008C23E0008A13E0008D53E000824
:1004E800E03E0008D0B5154888B002F045FC00266B
:1004F800002700240223CDE90334CDE90667CDE9BE
:1005080001440F4B0F4900944FF480620E4801F0EC
:10051800C9FC0523CDE90243CDE90667CDE90044CE
:100528000A4B0B490B4804944FF4806201F0BAFC63
:1005380000214CF2503003F028F8F9E7FA3E0008A1
:100548008D04000880090020100100206D040008B7
:100558004005002070000020014B1B68184700BFB1
:1005680000000020014B1860704700BF0000002009
:1005780030B585B004460D4610220021684603F0C8
:100588007DF802238DF802302A46044B0193214658
:10059800684602F029F905B030BD00BF61050008C2
:1005A80080B505460E461746984601F09DFE03465F
:1005B80003F0E0F8DFF81890044649F800304246A6
:1005C80030463946A84754F8090000F0D3F900BF6F
:1005D80008000000034A536823F002035360002018
:1005E800704700BF002004E0084B1A6842F480728C
:1005F8001A601A6842F400721A601A6842F480623B
:100608001A60034B034A1A60704700BF003C02405F
:10061800340000200024F400014B036000207047E0
:10062800CC3C000830BFFFF7FDBF00BF2DE9F0410B
:100638000B4EDFF8308006EB0807CC1B0546324628
:100648000949204603F00CF8A01942460021083C4D
:1006580003F014F8C5F8904007F10800BDE8F081F0
:100668000000000004000000CC3C0008054B5A695B
:100678009B689A421FBF044A536843F080535360F3
:10068800704700BF0805002000ED00E070B5264B5C
:1006980015469A6A12F0100F9A6A14BF1124102492
:1006A80012F0080F9A6A18BF1224920706460AD554
:1006B800586B9A6A140634D519B19A6A22F08002E6
:1006C8009A62132401E06FF01500174B9A6A12F032
:1006D800010F9A6A18BF142412F0200F9A6A18BFE3
:1006E8001524D20602D49B6A9B070AD50E4B5B6879
:1006F800190506D5314600F003FA10B180F30988D0
:100708000224094B9A6A920642BF5A6A22F400529E
:100718005A629A6A42F0FF029A6200232B702046BE
:1007280070BD6FF01500CCE700ED00E0134B9A6A3E
:1007380012F0007F9A6A14BF1E201D2012F0807FDD
:100748009A6A18BF1F2012F4002F9A6A18BF212036
:1007580012F4802F9A6A18BF222012F4003F9A6A76
:1007680018BF232012F4803F9A6A6FEA02426FEAA8
:1007780012429A6218BF2420704700BF00ED00E0C3
:1007880010B5194B0246986A9C6A10F4805F14BF32
:100798001720162014F4006F9C6A18BF1820A405AF
:1007A80009D5986B986A000404D51AB19A6A22F49C
:1007B80000429A6219200C4B9A6A12F4806F9A6A66
:1007C80018BF1A20D2050CD49B6A13F4005F18BF17
:1007D8001C20054A936A43F47F43936200230B70FD
:1007E80010BD1B20F5E700BF00ED00E0F0B5484B59
:1007F8005B688BB00446C3F30803002585F31188B2
:10080800BFF36F8F02F07F40B0F17F4F11D102F03C
:100818000C0008280DD010074CBF0C4601250022FB
:10082800033B8DF80720032B05D8DFE803F024638A
:1008380067602C46F3E700239DF80720CAB902AE8B
:1008480004F1200720686168324603C20834BC42BC
:100858001646F7D1099A002D54D0C2F3080121B9E0
:100868006FEA52226FEA4222099202A9184602F060
:1008780091FA0BB0F0BD264BDA6A9107DBD4DA6A3D
:10088800002AD8DBDA6A5200D5D55A69A16942F440
:1008980080725A61BFF34F8FBFF36F8F5A6931F877
:1008A800021C22F480725A61BFF34F8FBFF36F8F1F
:1008B8004DF6027291420AD09A6AD2B24AB10DF14B
:1008C800070201212046FFF7E1FE0346B4E723684B
:1008D800B2E79A6A12F47F4F05D00DF107010120A3
:1008E800FFF74EFFF1E79B6AB3F5803FA3D3FFF70D
:1008F8001DFFEAE70DF107020021E3E70DF107010B
:100908000020EDE722F4FF7222F00102ACE700BFFD
:1009180000ED00E0044B5A6942F010025A615A692E
:1009280022F008025A61704700ED00E0EFF30880FA
:10093800EFF3098101B57246FFF758FF01BD00BF0B
:100948000A4880F30888102080F3118808484FF47B
:100958000461401880F30988EFF3148002210843EA
:1009680080F31488BFF36F8F00F092F8801B00208B
:10097800C00D0020084B9B6883420BD1EFF3058321
:1009880043B1064B5A6842F080525A605A6A22F4C0
:1009980000425A6201F0AEBC0805002000ED00E0FC
:1009A80015498A684FF030001044EFF3098C80E84D
:1009B800F01F102080F31288BFF36F8F0F4F4FF096
:1009C80000664A698A603E60D2F890000C4C20604C
:1009D800D2F894000023C2F8943080F3118804B54B
:1009E800104600F0F5F8BDE8044002F1300090E848
:1009F800F01F8CF3098870470805002004ED00E01B
:100A0800C00300201EF0040F0CBFEFF30880EFF3C3
:100A18000980816911F8021C0229FFD001B57246CC
:100A280002F0BEF901BD00BF40B2002807DB044A4E
:100A38004109012300F01F00834042F8213070472C
:100A480000E100E040B20028A8BF00F1604001F1D9
:100A58000101B8BF064B4FEA0111ACBF00F5614078
:100A680000F00F00C9B2B4BF195480F800137047E2
:100A780014ED00E0044B054A23F07F039360BFF3B5
:100A88004F8FBFF36F8F70470000000800ED00E044
:100A980008B5FFF7EFFF0B4AD2F8883023F470034C
:100AA800C2F88830EFF3148323F0040383F3148827
:100AB800BFF36F8F01F0EAF801F03EFD00F05EF839
:100AC80001F02CF900ED00E042F8203C009B42F8D0
:100AD8001C3C0A49019B42F8183C029B42F8143C12
:100AE80021F001014FF0807342F8043C42F8081CE1
:100AF8000023203A0265C0F894307047A905000821
:100B08000A4A0346906878B113F1160FD0F88000AE
:100B180005D0A0F140029A4205D8834203D281420F
:100B280028BF002070470020704700BF080500203C
:100B380008B515460C4A0D4B9060D0F890201A6005
:100B48000E4600F045F82C4686F309880020044B31
:100B580098472046002100220023024C204700002D
:100B6800C72D0008A905000808050020C0030020BB
:100B7800014B10221A61704700ED00E00448002381
:100B88001021C2180133562B82F80013F9D170478F
:100B980000E100E008B5EFF30583064A103B02EBDD
:100BA800C30152F8330049688847BDE80840FFF799
:100BB8005DBD00BFB8390008024B034A0348012154
:100BC80000F078B80000022000000020CC3C0008AB
:100BD800D0F88020054B403A1A60054A4021C3E905
:100BE80001121846012100F06FB800BFC4030020AD
:100BF80000000B15084AC2F898000B6823F01F0381
:100C0800034343F01003C2F89C308B6843F00103A0
:100C1800C2F8A030704700BF00ED00E02DE9F043B6
:100C2800DFF8608085B00E461F4604464FF0000985
:100C3800B14523DA6068D8B13FB1411E08421BD1E3
:100C48001F2819D92368194216D12368019302F085
:100C5800CAF8A36803430393D8F89050C5F307254F
:100C6800D0B2013DA84207D801A9FFF7C3FF421C33
:100C780009F101090C34DBE76FF01502104605B0E5
:100C8800BDE8F08300ED00E0044B0522C3F8942092
:100C9800BFF34F8FBFF36F8F704700BF00ED00E0C9
:100CA800BFF35F8F024B0022C3F89420704700BF48
:100CB80000ED00E010B5034C01232278FFF7AEFFEA
:100CC800207010BD3405002008B50B4A00231278A7
:100CD800FFF7A4FF10F1160F07D0084A0021D2F839
:100CE8009030C3F30723984200DB08BDC2F8980090
:100CF800C2F8A0100130F2E73405002000ED00E052
:100D08002DE9F043534B544CD3F890302568C3F386
:100D180007239D4285B000F29A80FFF7C1FF0020AB
:100D28000C2685421AD14D4C4D4F25706846FFF769
:100D380073FCDFF82081DFF82C9106460025AE42CF
:100D480013D1237843490020D1F89020C2F3072219
:100D5800934276DBFFF798FF002042E0616806FBCC
:100D68000011FFF747FF0130DBE7009800EB0511A2
:100D78004FEA051CCB683B40B3F5000F48D00AD8B2
:100D8800B3F5001F30D0B3F5800F36D0B3F5801F10
:100D980010D00135D3E7B3F1807F42D0B3F1007FA3
:100DA800F7D150F80C3088684A6802F01CF840F413
:100DB800802009E050F80C3088684A6802F013F87F
:100DC80040F0885040F43020CDE901230390D8F852
:100DD80090302078C3F30723013B98422AD96FF05B
:100DE800150005B0BDE8F08350F80C3088684A68F3
:100DF80001F0F9FF40EA0900E6E750F80C3088688E
:100E08004A6801F0F0FF40F0C06040F40030DBE7D2
:100E180050F80C3088684A6801F0E5FF40F08270AD
:100E2800D2E750F80C3088684A6801F0DCFF40F0DF
:100E38008870C9E701A9FFF7DDFE23780133237025
:100E4800A7E7C1F89830C1F8A00001337CE74FF05C
:100E5800FF30C6E700ED00E0D83C0008340500206C
:100E68000000F0FF0000081108B5024B1B68984706
:100E7800002008BDD0030020034B044A1860937873
:100E880043F0020393707047D00300200400002051
:100E980008B50649064821F00701C1F1005202F5DC
:100EA800003201F02AFF002008BD00BFC71B002048
:100EB800D40300202DE9F041104E114F05460024BF
:100EC8004FF001082B7871691A19D2B208FA02F2A8
:100ED80001EA02008A4309D153FA84F3706157F892
:100EE80033201AB107EBC303596890476A78013475
:100EF800E3B29A42E6D2BDE8F08100BF003C01406F
:100F0800E0030020044B184400230133994200F801
:100F1800012BFADC704700BF4400002007B5062209
:100F280001210020FFF7EEFF002211460620FFF7FF
:100F380089FD012108460722FFF7E4FF0022114638
:100F48000720FFF77FFD082201210220FFF7DAFFC3
:100F5800002211460820FFF775FD09220121032010
:100F6800FFF7D0FF002211460920FFF76BFD0A2288
:100F780001210420FFF7C6FF002211460A20FFF7CF
:100F880061FD052108461722FFF7BCFF0022114624
:100F98001720FFF757FD282206210A20FFF7B2FF86
:100FA800002211462820FFF74DFD4FF480430748E3
:100FB8004422CDE9002383681B6823B1694698471A
:100FC80003B05DF804FB6FF05700F9E71838000824
:100FD800034660B1B0FA80F2C2F11F02D2B20549ED
:100FE8008856054A11680B431360FFF71DBDFF22A1
:100FF800F5E700BF44000020003C0140024A1368A6
:1010080023EA000313607047003C0140032921D8FC
:10101800DFE801F0020C10190F4B9A6822EA00026F
:101028009A60DA6822EA0002DA6070470A4B9A6826
:101038000243F5E7084BDA680243DA609A6822EA65
:1010480000029A607047044B9A6802439A60DA6813
:101058001043D860704700BF003C014030B5B0B1C4
:10106800B0FA80F3C3F11F03DBB20B4850F83340EA
:101078008C4204D100EBC3056D68954205D044B994
:1010880040F8331000EBC3004260002030BDFF235E
:10109800EBE76FF00F00F9E7E003002060B1B0FA6A
:1010A80080F3C3F11F03DBB2044A002142F8331076
:1010B80002EBC30251607047FF23F5E7E00300200D
:1010C80000F00302043292000F23934043EA900099
:1010D800C3B20233054A52F82320030C02EA104037
:1010E80093FAA3F3B3FA83F3D8407047003801406A
:1010F80038B50888254BC0F30B0007281B680D4638
:10110800144614D810B96FF0850038BD0238052888
:1011180006D8DFE800F03203323020284FF4FA43D3
:1011280023602968B1F5805F29D20020EDE74428C3
:101138000ED82F28E7D900F57D61C1F30B010122F4
:101148008A4013490A42EBD14028DCD15B08E7E723
:10115800A828E5D0D7E700F0B1F84FF4C072C3086B
:1011680053439B08DCE700F0A9F84FF4C072C308AA
:101178005343DB08D4E7074BD2E70023D0E7C1F39A
:1011880013310131B3FBF1F32360CEE734000020C3
:101198001101100000127A0070B5444D444C00F063
:1011A800AFF8284601F0DDFE00F02CFCA368414AA8
:1011B800C3F30313D35C20FA03F613781D41AE4240
:1011C80002D2284600F04CFC236843F480232360B5
:1011D800236843F480332360354B1A689103FCD5A8
:1011E8005A6F42F001025A675A6F9207FCD59A6803
:1011F80002F00C02082A17D11A68940707D41A6853
:1012080042F001021A602A4A13689807FCD5284B55
:101218009A6822F003029A609A6812F00C0FFBD1C8
:101228009A6822F0F0029A60214C236823F08073B8
:10123800236023689901FCD4636823F4403343F4A2
:1012480080336360636823F0706343F00063636016
:1012580000F038F8236843F080732360144B1A6851
:101268009201FCD59A6822F0F0029A609A6822F0FE
:10127800030242F002029A609A6802F00C02082AFD
:10128800FAD1AE4202D3284600F0EAFB0A4B074ADD
:101298001A60074A936823F4E05343F48053936039
:1012A800936823F460439360002070BD00D8B805AC
:1012B800003802400C400008340000200048704705
:1012C80000127A00094B0A495A681140094A0A4330
:1012D8005A605A68084922F4403242F480325A600F
:1012E8005A681140054A0A435A607047003802405C
:1012F8000080BFFF086040000080BFF00860400821
:10130800064B1A6C42F080521A641B6C82B003F0D0
:1013180080530193019B02B0704700BF0038024020
:1013280008B5074802F0B3F838B10648FFF7A4FD3E
:101338000448FFF717F9002008BD6FF01200FBE71B
:1013480078390008511300080A2838B5074D0446B3
:1013580004D1AB680D215B6828469847AB68034801
:101368005B68E1B29847204638BD00BF783900086D
:101378002DE9F843D0F80480D0F81090D8F8080088
:1013880017460D461E4601F043FDB7F5001F0446FB
:1013980016D12846D8F80840FFF792FE84420CD1AF
:1013A800294601F035FD0446FFF728FE2046FFF7E1
:1013B80075FE00212046FFF729FE0020BDE8F883CE
:1013C800B7F5800F20D0B6F1806F19D0B6F1C06F95
:1013D80018D0B6F1007F1AD1022610494A46204695
:1013E800FFF73CFEB0B9D8F80810284601F013FD05
:1013F80020463146FFF70AFE2046FFF7E9FDDCE705
:101408000126EAE70326E8E76FF08500D6E76FF0E4
:101418001500D3E76FF00F00D0E700BFDF310008F9
:1014280038B50369044658600A4D284602F02FF87B
:1014380060B1AB6861681B680C3123B128469847D6
:1014480000EAE07038BD6FF05700F9E76FF012005E
:10145800F8E700BF183800082DE9F0471E4F04468A
:1014680000EBC1060025B44201D1002014E0206839
:10147800C30600F01F0911D4656845F02005C0F3C4
:10148800481AC0F34420102823D857F82080B8F110
:10149800000F0DD16FF01200BDE8F087B9F1100F01
:1014A80004D0B9F1110FEAD16568E8E73025E6E71D
:1014B800404601F0ECFF0028ECD04B462A460AF0E3
:1014C8000F01404601F09DFE002804F10804CADA25
:1014D800E2E76FF01500DFE7983D0008F8B503690B
:1014E8000C465E6823794168012B34D09A1E554218
:1014F8005541AD026279022A9CBF354F37F812C0B8
:10150800A27988BF4FF4005C042A27D0003B18BF9B
:1015180001231B03E279012A0A680CBF4FF44077C4
:101528000027A642D1681CD121F4B05129430B43AE
:10153800D360136923F4405343EA0C0313614368EF
:101548001A68536923F440733B4353613168BDE81B
:10155800F84001F0F1BE4FF4C065CBE74FF480537B
:10156800D8E701F4C0618D421FBFD16821F4C06182
:101578002943D160426811680A6902F440529445CF
:101588001FBF0A6922F4405242EA0C020A6142680B
:101598001168CA6802F4805293421FBFCA6822F4D5
:1015A80080521343CB6043681A68536903F440734D
:1015B8009F421FBF536923F440733B435361216823
:1015C8003368994203D001F0B7FE23683360F8BD51
:1015D800903E00082DE9F04143681D680369D3F87F
:1015E80004800B790C46012B4979A67933D102295D
:1015F8004CD9042E47D04FF480574FF4C0620323D0
:101608008B4240D1002F79D0002A14BF0322042234
:10161800B24238D1E37963B1012B34D13A4B9D42C0
:1016280007D0A3F54C439D4203D003F550439D4298
:1016380029D1EB6823F40053EB602146FFF74EFFF6
:10164800EB6843F40053EB6094E8030088E8030078
:101658000020BDE8F081022B08D1022921D9042EEF
:1016680011D04FF480624FF48057C8E702290A4628
:101678001FD9042E04D133B94FF480571A46BEE758
:1016880063BB0329C4D06FF08500E2E71F4A042E2C
:1016980032F811C0F7D04FF4C062033B012B10D8C9
:1016A800F1E71A4A042E32F811C0ECD04FF48062E8
:1016B800F3E7164A042E32F811C016D1002BE2D1F6
:1016C8001A464FF48057BCF5805F13D0BCF5405FD5
:1016D80012D0BCF1000F92D1012391E7033B012BFB
:1016E800D1D90022BFE70022D7E7002BFBD11A4649
:1016F8001F46E8E7002383E7022381E7002A14BF97
:101708000222032284E700BF00100140903E000837
:10171800F7B50669446805462948306001F0B7FE08
:1017280018B96FF0120003B0F0BD3068E168836843
:101738001B68002B40D098470028F4DB206A01AAD8
:10174800002101F076FD0028EDDB019B00221979CC
:101758001868FFF781FE0028E5DB6E682B6934689E
:101768005F68E36823F40053E360706801F08FFE5C
:101778000028D6D0D6E901018368DB6803B1984711
:1017880004F10C0353E8003F43F00C0304F10C018F
:1017980041E80032002AF3D139462846FFF79EFE79
:1017A800337D1BB1636943F008036361E36843F465
:1017B8000053E3600020B6E76FF05700B3E700BFBF
:1017C8001838000810B54FF0E0230F499C691A69D2
:1017D80008689B690D4902F4803234B993B903460D
:1017E8004AB90A681044C01A10BD002B08BF034646
:1017F8000AB9A342F5D90A6802440A604FF0E02208
:101808001269EEE70446F3E704050020000500200E
:101818000A4B102283F82320094B4FF416521A6002
:10182800084B002018604FF0E02342F27F525A61C3
:1018380098611A6942F007021A61704700ED00E0EA
:101848000405002000050020684620F007018D46A9
:1018580019B5FFF7B7FF114B1149D3E900420868E2
:10186800001942F10002C3E900020E4A00230B608E
:10187800D2E900414FF41653001BB0FBF3F0434389
:101888001B1941F10001C2E9003100F02FFFFEF7FA
:10189800EDFEBDE819408546704700BFB80100203D
:1018A80000050020B00100202DE9F041DFF8DC80C0
:1018B80099B1421C0BD14FF0E022136923F00103C8
:1018C80013614FF07F43C8F80030BDE8F081D8F8C5
:1018D8000060012807DC00270BE0431CD8F80060F3
:1018E800F7D140F2D26040F2D3639842A8BF1846BD
:1018F800471EEFF31185102383F31288BFF36F8F10
:10190800FFF760FF224C4FF0E0239969D4E90023E8
:10191800801843F10003C4E900031E4B00221A603B
:101928001D4B1A68831A2ED44FF4165C0CFB073330
:1019380003F515533F33B3FBFCF7131A0CFB0733BE
:10194800B3F5806F154A38BF4FF48063934228BFC0
:1019580013464FF0E022C8F80030013B906953610C
:10196800002393618142A1EB0003D4E9001238BF40
:101978009B195B1842F10002C4E9003285F3118813
:10198800BFF36F8FA1E74FF48063E2E704050020FF
:10199800B801002000050020B001002000C3FF00AE
:1019A80038B5EFF31185102383F31288BFF36F8FD7
:1019B800084B1C68084B1B68E41AFFF703FF85F304
:1019C8001188BFF36F8F4FF416532044B0FBF3F028
:1019D80038BD00BFB8010020B001002038B5EFF3D2
:1019E8001185102383F31288BFF36F8F044B1C6893
:1019F800FFF7E8FE85F31188BFF36F8F204438BDE9
:101A0800B801002008B513498B6803F00C03042BB8
:101A18001CD0082B1CD14A684B68496813F4800312
:101A280014BF0D480D48C1F3881118BF002302F0F8
:101A38003F02A1FB0001FEF7ABFB064B5B68C3F35B
:101A4800014301335B00B0FBF3F008BD0248FCE73B
:101A58000248FAE70038024000127A000024F40035
:101A6800002876D03C4B1A6802F44042B2F5404F49
:101A780020D13A4A904215D8394A904207D91A6873
:101A880002F44042B2F5004F5CD102201FE0354A13
:101A980090421A6802F4404247D9B2F5004F4CD13F
:101AA800012014E01A6802F44042B2F5004F3FD119
:101AB80003200CE01A6802F44042B2F5004F22D12C
:101AC800274A90423ED8274A90422ED90020224BDE
:101AD8001B68012838BF012003F44043B3F5804F49
:101AE8001FD0214A136823F00703034313601368C8
:101AF80003F0070398421CBF136803F00703C01ADA
:101B080018BF012070471B6803F44043B3F5804FAA
:101B18000CD1134B98421AD8124B98424FF0000040
:101B2800DFD9012838BF0120DBE71B680020D8E790
:101B38001B68032003F44043D0E71B68012003F42B
:101B48004043CBE71B68022003F44043C6E702206A
:101B5800C7E70120704700BF00700040804A5D055C
:101B68000090D00380C3C901003C024038B5EFF3B0
:101B78001185102383F31288BFF36F8F064B9C687F
:101B880001F098FC85F31188BFF36F8F2046BDE8FC
:101B98003840FEF7EFBE00BF0805002038B50A4BF5
:101BA80053F82040013053F82050A54200D838BDE2
:101BB800606830B1037FDB0701D401F07EFC083494
:101BC800F3E723689847FAE7783E000870B52A4B90
:101BD8002A4C2B4D012286B003201A70FFF7DEFF36
:101BE80000F0FCFD0420FFF7D9FF2646AE4204F1C1
:101BF800300410D300F084FA204C224EAC4226D395
:101C080000F092FAFEF76EFC1F4A137B23F00103E3
:101C1800137306B070BD54F80C3C059354F8103C8F
:101C2800049354F8143C039354F8183C029354F862
:101C38001C3C019354F8203C009354E90A2354E9CE
:101C48000C0100F0D3F854F8303C5E65CDE7D4E9D8
:101C58000A23B3F1FF3F08BFB2F1FF3F05D052EAB4
:101C68000301206803D100F01BFB3034C6E731467E
:101C7800183000F0ABFCF8E735050020683C000898
:101C8800683C00088B3500086002002008B503484E
:101C9800034A0021121A01F027FC08BD7000002039
:101CA8003805002070B5174E174D184986B0A02387
:101CB80003FB0066164B059301220F23CDE903327F
:101CC8000023CDE90133142303FB005504464FF4E8
:101CD800C07000FB04110F4B00954FF4A072304602
:101CE80000F084F8737B0C4AEE6023F004037373EE
:101CF8004FF4046304FB033313442C746B6006B085
:101D080070BD00BFC001002008050020001600209B
:101D18001C400008F9340008C00D0020BFB50020A1
:101D2800FFF73CFF294B83F30888294C294F636947
:101D380043F4007363610025F02384F82230E577CB
:101D480025766576A57684F82050636A43F4E02307
:101D58006362FEF7DFFDFEF70BFF4FF0FF33A36270
:101D6800E362FEF7CDFFFEF727FF1B481B4C00F090
:101D7800C5F801F08BFBFEF737FC0120FFF70EFFDB
:101D88000220FFF70BFF00F003FA154B15495C61C1
:101D9800154B05930123CDE903534FF480623B466D
:101DA800CDE901550095204600F020F8627B0646F3
:101DB80022F004022046627301F0B7FB2846FFF7C1
:101DC80071FF3A4631462046FEF7B2FE0016002063
:101DD80000ED00E0D51B0008000300206002002091
:101DE8000805002080170020214000082DE9FF4742
:101DF800073222F007020E4698461099017300F147
:101E080058037F32C0E916330446002322F03F020C
:101E18000421836041733F2A0F98119FA073C4E97E
:101E28000633E37306F1400AA2F1400905D883F3AB
:101E38001188BFF36F8F084602DFB5182946204680
:101E4800FEF7F4FB07300E9B20F00700C4F888006B
:101E5800C4E920A902930D9B01932D1A0C9B0093B2
:101E6800314643462A4620460026FEF72DFE666583
:101E780097B11F22394604F1600001F007FC84F88D
:101E88007F60074B9B680BB1D3F88C30C4F88C305B
:101E9800284604B0BDE8F08784F86070F1E700BF19
:101EA80008050020F0B587B000250595109D04951C
:101EB8000F9D03950E9D0295DDE912760D9D019506
:101EC8000C9D00950446FFF791FFB6F1FF3F08BF50
:101ED800B7F1FF3F05D056EA070305D1204600F0C9
:101EE800DFF9204607B0F0BD3A46334604F1180042
:101EF800014900F06BFBF4E78B35000840F2011351
:101F080083810023C0E92033C0F88C30014B9860EE
:101F1800704700BF080500200A4A93686FF00A015D
:101F2800C3F898100849C3F894004B6843F08053ED
:101F38004B60002383F31188BFF36F8F9368D3F846
:101F4800980070470805002000ED00E070B590F992
:101F58000D20437B002A36DBD90634D11B4C63F0B5
:101F68007F032246437352F8183FE169934207D131
:101F7800C0E900210860E06111E09942F8D01B68CF
:101F8800002BF5D090F90E5093F90E60B542F4D0BD
:101F9800AE42F2DD5968C0E9003108605860A569B1
:101FA800954200D005B9E568A3685A7BD20604D1EA
:101FB800DA897F2A01D9AA6932B1AB4202D0284610
:101FC80000F062FA656170BD6361FCE708050020F6
:101FD80038B590F90D20437B002A014604DA03F056
:101FE8007F03437301F08FFA0D4D2A46AB6852F810
:101FF800184F944200D004B9EC688B4207D05A7B42
:10200800D20604D1DA897F2A01D9A2692AB1A3426A
:1020180002D0204600F038FA23466B6138BD00BF75
:102028000805002070B590F90D20437B002A014671
:1020380004DA03F07F03437301F065FA4B7B1C4C11
:1020480063F07F0322464B7352F8183FE0699342CE
:1020580007D1C1E900200160E16111E09842F8D0A0
:102068001B68002BF5D091F90E5093F90E60B5421C
:10207800F4D0AE42F2DD5868C1E900300160596021
:10208800A569A368954200D005B9E5688B4207D0D9
:102098005A7BD20604D1DA897F2A01D9AA692AB1E2
:1020A800AB4202D0284600F0EFF92B46636170BDC1
:1020B8000805002049B9EFF3058030B9054B5A6986
:1020C8009B689A4201D0FFF727BF81F31188BFF3BD
:1020D8006F8F704708050020034648B9EFF3058263
:1020E80032B9064A51699268914201D0FFF714BF8C
:1020F80083F31188BFF36F8F704700BF0805002076
:10210800EFF31181102383F31288BFF36F8F054B10
:102118009A68D37B013BD37381F31188BFF36F8F28
:10212800704700BF0805002070B5EFF31186102333
:1021380083F31288BFF36F8F144DAB68DA7B0132DB
:10214800DA732A4652F8184F944200D004B9EC6862
:102158005A7BD20604D1DA897F2A01D9A2692AB129
:10216800A34202D0204600F08FF923466B6186F324
:102178001188BFF36F8FEFF31180102383F3128858
:10218800BFF36F8FBDE87040FFF7A6BF08050020BA
:10219800024B03F11802C3E9062270470805002024
:1021A80070B5EFF31186102383F31288BFF36F8F96
:1021B8001B4CA168E0690B68814214BF1A460022D3
:1021C80049680B605960A368E1692AB9154AC3E9EF
:1021D80000210B60E3610CE093F90E0092F90E50B8
:1021E800A84218D0854216DD5168C3E900210B606A
:1021F8005360A5690B4B9D4200D005B9E568A368FB
:102208009D4202D0284600F03FF965613046BDE89E
:102218007040FFF781BE8A42D8D01268D5E700BF68
:102228000805002020050020F8B550EA01030646FD
:102238000C4603D1FFF7B4FF0020F8BDEFF3118778
:10224800102383F31288BFF36F8F124D124BA868C7
:102258001860FFF7BDFEA8681049234632461830BB
:1022680000F0B4F9AA68537B43F00403537304469F
:102278003846FFF751FEAB68D3E90A23B3F1004FA4
:1022880008BF002AD8D101F0E7F9201A20EAE07047
:10229800D3E700BF08050020280500208B3500087B
:1022A80038B50446EFF31185102383F31288BFF382
:1022B8006F8F437B5B070FD5183001F0A5F9637B5F
:1022C80023F0040320466373FFF740FE29460548C0
:1022D800BDE83840FFF7EEBE85F31188BFF36F8F76
:1022E80038BD00BF36050020014B9868704700BF15
:1022F800080500202DE9F8430446077BEFF3118514
:10230800102383F31288BFF36F8F437B190705D51A
:1023180085F31188BFF36F8FBDE8F883D90943F0BF
:1023280008025AD14273A36813B1204601F0F3F8AA
:1023380004F1180001F068F9A66D04F15808B045D9
:1023480011D04FF0000976B1304601F0E4F806F1FB
:10235800180001F059F9C6F898903046FFF7F6FDD5
:10236800A66DB045EFD1DFF8B880D8F808309C42A8
:102378003BD1EFF30589B9F1000918BF4FF0010906
:10238800D8F81860274A964200D00EB9D8F80C60E1
:10239800B34202D0304600F077F8C8F81460B9F1BB
:1023A800000F02D02048FFF7A9FDD8F808309C425A
:1023B80031D1EFF3058373BB227BD20718D42846AB
:1023C800FFF7AAFDFB07A7D5002383F31188BFF306
:1023D8006F8F0423184602DF9EE703F07F0343F064
:1023E8000803437301F08FF89DE74FF00009C7E732
:1023F80085F31188BFF36F8F83F31188BFF36F8F55
:102408000423184602DFEFF31180102383F31288A8
:10241800BFF36F8FD4E785F31188BFF36F8FD1E7D0
:10242800080500202005002000030020044BC01AE6
:10243800044BC0105843044B01221A54704700BF84
:10244800A0030020ABAAAAAA36050020C3897F2BC7
:1024580012D80A4B1B6863B1094B90F90E201B6810
:102468009A4209DB437BDB0606D1064BC31A18BF29
:10247800012303F0010070470023FAE73800002029
:102488002C050020C001002070B50E4B0E4C1E7CA0
:1024980006EB460304EBC3040546204601F0B4F8F6
:1024A8000A4B002228469A55FFF7D0FF48B1084B3F
:1024B80008491A68013A2046D317BDE8704000F071
:1024C80085B870BD08050020A0030020360500204F
:1024D800380000203524000838B5EFF311851023A3
:1024E80083F31288BFF36F8F104B114A9C681068F2
:1024F800A04206D1FFF7C8FF85F31188BFF36F8F9D
:1025080038BD00211B7C11600A4AD35C002BF3D034
:102518002046FFF79BFF0028EED0637BDB0602D145
:102528002046FFF77FFD2046E4E700BF08050020AE
:1025380028050020360500200748084A084908B53C
:10254800121A00F0D3FF0748074A0849BDE80840B7
:10255800121A00F0CBBF00BF00000020700000205E
:1025680060400008000000200000002060400008D3
:10257800024B1868984208BF002070473C000020B2
:10258800034B1B680BB9FFF70BBA0020704700BF5D
:102598003005002030B570B10B4B5B6898420AD00B
:1025A800036843B1D3E90421D0E90445121941EB8A
:1025B8000501C3E90421D0E9003213605A60002301
:1025C800C0E9003330BD00BF3C000020B3F1FF3F3D
:1025D80008BFB2F1FF3F2DE9F84F0446994615466A
:1025E8001F467AD08160EFF31188102383F3128895
:1025F800BFF36F8FB9F1000FDFF8E4A020DBFFF71E
:10260800BFFFDAE90027013549F100092D1849EB28
:10261800E073C4E90453AD18064643EB07074FF0CF
:102628000109FFF7A5FFDFF8BCE0DEF804A00346C8
:10263800EBB9C4E900EACAF80040CEF8044028E043
:10264800DAE900126FF001035B1A4FF0FF3161EB1A
:1026580002025B1B62EB0902012B72F10001BCBF95
:1026680001230022C0E904324FF00009D9E7D3E979
:10267800041CD4E904208A4270EB0C0B24DA891A72
:102688005A686CEB0000C3E90410C4E90032146016
:102698005C60FFF76DFF84420ED1134B1B685BB97A
:1026A800B9F1000F02D1FFF76BFF0646304600F084
:1026B80094FF0021FFF7F8F888F31188BFF36F8FB4
:1026C80028463946BDE8F88F521A60EB0C009A4547
:1026D800C4E90420ADD01B68AAE700252F46EFE720
:1026E800B80300203C000020300500202DE9F04709
:1026F800EFF31185102383F31288BFF36F8FDFF890
:10270800A490DFF8A480C9F80000FFF731FF002685
:102718000027D9F80030D8E900ECD91750B1D0E932
:102728000442A34271EB020A1CDAE41A62EB0102CA
:10273800C0E9044213EB0E034FF000044CEB010117
:102748002046C8E90031C9F8004000F046FF21469C
:10275800FFF7AAF885F31188BFF36F8FBDE8F0473C
:10276800FFF7BABE14EB0E024CEBE473C0E9046742
:10277800C8E90023FFF70EFF85F31188BFF36F8FB9
:1027880083689847EFF31185102383F31288BFF30A
:102798006F8FD9F800301B1BC9F80030FFF7E8FE2F
:1027A800B7E700BF30050020B803002010B5EFF3ED
:1027B8001184102383F31288BFF36F8FFFF7E0FEB5
:1027C800054A0346D2E90001181841EBE37184F386
:1027D8001188BFF36F8F10BDB8030020014800F0C7
:1027E800CBBA00BF264000082DE9F04F8DB04368F2
:1027F8000293837815469A07804640F10D8100249C
:102808000E78002E00F00A81252E0BD04B1C039366
:102818000134029B4146304698470028C0F2F680B2
:102828000399EDE74E788B1C252E0393F0D00027F3
:10283800B946BB46BBF11F0F38D8A6F12003102BB1
:102848000AD8DFE803F02A0909300909092109092A
:102858000928092D09091F00A6F13003092B33D9CE
:102868002A2E37D11BF0400F55F8043B40F08280E8
:10287800002BA7BF4BF0200B9946C3F100094BF082
:10288800280B01E04BF0010B039B13F8016B03933A
:10289800002ECFD130E04BF0020B4BF0040BF3E7E6
:1028A8004BF0080BF0E74BF0100BEDE7BBF17F0F97
:1028B80019D8A6F13003092BD2D81BF0400F03D04A
:1028C8000A2101FB0737DFE70A2101FB09394BF031
:1028D800200BD9E72E2E06D11BF0400F40F09E802A
:1028E8004BF0400BD0E76C2E31D02BD8682E36D069
:1028F8006A2E3CD04C2E3AD0002F46F02003B8BFA9
:102908002BF04002A3F16501BCBF1FFA82FB002730
:10291800022901D9612B2FD1073525F00705DFF8EA
:10292800ACA2083507271BF0080F66D00AEB070B87
:1029380056465E4563D1A4EB0A0A06EB0A02A9EBE8
:1029480007096FE1742E9FD07A2E9DD0D4E71BF033
:10295800800F18BF4BF4007B4BF0800B94E71BF4FF
:10296800807F18BF4BF4007B4BF4807B8CE74BF4E3
:10297800207B89E71F4687E7A6F16301122900F249
:10298800F080DFE811F013004F00EE00EE00EE00DB
:10299800EE004F00EE00EE00EE00EE00EE00FE004E
:1029A800E900EE00EE001B00EE00AF0055F8043B16
:1029B8008DF8183001270DF1180AB4E755F804AB63
:1029C800834BBAF1000F08BF9A461BF0400F14BFA3
:1029D80039464FF0FF31504600F068FE0746A2E73F
:1029E800029B41462020984700280FDB013EB74252
:1029F800F6D34C44A41BB14698E74E46F7E716F8C1
:102A0800010B029B41469847002892DA98F8023059
:102A180043F0040388F802304FF0FF3420460DB02D
:102A2800BDE8F08F1BF0800F34D01BF4007F2CD052
:102A3800073525F00705AA4669685AF8080B2BF0F0
:102A480010050029ADB237DA404261EB410145F487
:102A580080650DF1180B0A235A4600F033FEA0EBEF
:102A68000B0301936B0662D5019B25F001019F4280
:102A780089B240F3A180002E00F0998015F0100271
:102A880040F09C80BB460D4623E0AA465AF8040B4A
:102A9800C117D4E7AA461BF4807F5AF8041B01D15A
:102AA8000846F5E71BF4007F15BF48B208B241F3AA
:102AB800C01141F3C031C2E750EA0103C9D11BF08C
:102AC800400FC6D0002FC4D12BF0110295B2BB46DF
:102AD800019740F2064115EA01021CBF0BF1010BF8
:102AE80000222CE02BF010021FFA82FB0A231BF0B5
:102AF800800C49D01BF400711DBF073525F0070570
:102B0800AA46AA461ABF5AF8080B69685AF8040B6D
:102B180050EA010545D12BF016051BF0400FADB268
:102B280042D0002F40D12BF0170295B2019715F033
:102B3800100248D0019B002E42D103F1010B290756
:102B48005AD4EB0706D5D9456FDD0199A9EB0B03DC
:102B58005F18CB465B4649E04BF0100B10237826F4
:102B6800C5E7782B04D1C6F1780343F01003BEE71C
:102B7800029B4146252098470028FFF647AF0234BC
:102B880047E608230026B2E7AA461BF480715AF8E4
:102B9800040BBDD01BF400711ABFC0B2614680B2ED
:102BA800B6E72BF0060295B20DF1180B54E725F0A5
:102BB8001105ADB2BB468CE70D46B8E73B460D465E
:102BC80003F1020BBBE7DDF804B082E755400008CB
:102BD8004E400008CDE904324146029B2020984728
:102BE8000028FFF613AF049B059A01339945F1DCE1
:102BF800A4EB0B01CC189B460AB3029B414630203C
:102C080098470028FFF602AF8EB901342744019B8C
:102C1800391B994224DC1D465DBB019AA9EB0B09BF
:102C2800224455461446914435E0019F92E7023408
:102C380041463046029B98470028E7DAE6E640F22C
:102C480006410D42E2D015F0020F14BF2B202020C0
:102C580015F4806F04F10104414618BF2D20E9E7FF
:102C6800029B414630209847002804F10104CEDA3F
:102C7800CCE606AB013D4146585D029B98470028CB
:102C8800CADAC3E6029B414620209847002804F18F
:102C98000104FFF6BBAEA9EB0403002BF2DCBFE591
:102CA800704700EBC100408840087047F8B50346FC
:102CB800FFF7F7FFB0FA80F0C0F11F0003EB800CBC
:102CC800CA00DCF81060171D0C4606328DB256B9E2
:102CD800012101FA00F0D9680143D960CCF810400D
:102CE800DD539D52F8BDF1000431585AD85303EB17
:102CF800C0009E52C5805D52F4E7043A2DE9F041C8
:102D0800CC1D114424F0070421F007010E1BF7081D
:102D1800B7FA87F2C2F12405AD004FF00008073575
:102D2800C2F12002ED0804604146A760C4F80C8097
:102D3800920004F1100000F0A1FC6B0043F00103C5
:102D4800638004EBC5027B1B5900A4F80080518006
:102D5800A21924F83550A2F80280A35304EBC70344
:102D680029465A8842F001025A802046BDE8F041BF
:102D7800FFF79CBF002070470FB407B504A951F8AE
:102D8800040B0191FDF7F4FB03B05DF804EB04B00C
:102D980070477047012801D1EFF30583FEF7E6BEBF
:102DA80001460068FFF7F6BF08B5FDF73BFCBDE834
:102DB8000840FDF75BBC00210120FFF7EBBF61B6BF
:102DC80062B680F31188BFF36F8F704772B6002325
:102DD80083F31188BFF36F8FBFF34F8F30BF62B695
:102DE800BFF36F8F7047202809D9B0F1004F08D87A
:102DF8000138B0FA80F0C0F11F0040007047082089
:102E080070473E20704708B5FEF72EF8002008BD31
:102E180001208840704700F00302043292000F231B
:102E2800934043EA900010B5C3B29B0003F180437E
:102E380003F59C33020C9C6892FAA2F2B2FA82F271
:102E480024EA104091400143996010BD0B88C3F3F8
:102E58000B0303F57D62C2F30B02782A82B014D803
:102E680003F1804303F50E3348681A6802431A6079
:102E78000B88C3F30B0303F1804303F50E330020E3
:102E88001B680193019B02B070476FF08500FAE759
:102E98000B88C3F30B0303F57D62C2F30B02782A98
:102EA8009FBF03F1804303F50E3349681A689DBF3D
:102EB8008A4300201A606FF085007047072808D8F9
:102EC800EA23C34013F0010F14BF00206FF0850000
:102ED80070476FF08500704710B50888C0F30B0085
:102EE800FFF7ECFF00281FDB4A68FF2A1BD093B2CC
:102EF80003F1804303F50E33C2F384541868C2F318
:102F0800054204FA02F220EA02021A6049688BB20A
:102F180003F1804303F50E33CA0E1868C1F3054167
:102F28008A4002431A60002010BD0888C0F30B00D5
:102F380008B500F57D63C3F30B03782B0AD800F1BD
:102F4800804000F50E304B680268934314BF01209F
:102F5800022008BDFFF7B2FF002814BF012002209D
:102F6800F7E7704743685B681B690B600020704790
:102F780043685B68586942400A4042405A610020F1
:102F8800704743685B6800209961704743685B68D5
:102F9800090499610020704743685A6853694B4097
:102FA80053610020704710B503699868F8B18842EA
:102FB80019D1DC6808689860A14200D1D860002067
:102FC80008602AB19A680A60DA68996002B9D9601B
:102FD800002010E0814206D108682060D86881424C
:102FE800EDD1DC60EBE7044600680028F2D1002A46
:102FF800E8D16FF0150010BDF0B54468012067688E
:1030080088401E46C2F3801327EA00078B403B43E3
:10301800636090FAA0F7B7FA87F7D4F808C04FF0C2
:10302800030E7F000EFA07F72CEA070C90FAA0F7B8
:10303800B7FA87F7C2F3C1137F00BB4043EA0C031A
:10304800A36090FAA0F3B3FA83F3E7685B000EFA83
:1030580003F327EA030790FAA0F3B3FA83F302F025
:1030680030055B00C2F341229A403A43202DE260CA
:1030780016D107292BD890FAA0F3226A2BB3B3FAFA
:1030880083F39B000F2101FA03F322EA030290FA6B
:10309800A0F3B3FA83F39B0006FA03F31343236206
:1030A80090FAA0F3B3FA83F3226890FAA0F05B00D9
:1030B8000321B0FA80F02D0901FA03F3400022EA57
:1030C800030385401D432560F0BD2B46D9E7030A5D
:1030D800616A93FAA3F282B1B2FA82F292000F27E0
:1030E80093FAA3F3B3FA83F307FA02F29B0021EAF7
:1030F80002029E4016436662D2E72A46EEE712F4C1
:10310800003CF8B505460C4613461DD0960714D565
:1031180050075DD55022D90611D542F4007203F448
:10312800C061B1F5806F42D0B1F5C06F19D0B1F56B
:10313800007F18D142F0800215E01022EBE79F06CD
:10314800EDD542F48062EAE7D60305D5D00605D46A
:10315800C2F340129202E2E73022E0E74FF4007235
:10316800DDE742F4C07213F440372E6908D03069A5
:1031780020FA04F1C9075FBF0121A1400143316171
:10318800BCF1000F06D0180314D5696801234968FB
:10319800A3408B61686800232146FFF72DFF27B9FC
:1031A800336923FA04F2D2070CD40020F8BD42F4A4
:1031B8008072D8E75903EDD50121A1402846FFF7D1
:1031C800E5FEE7E70122A24023EA02033361ECE7C8
:1031D8006FF08500EAE770B50B468968054611B1BE
:1031E8005E680C6801B970BD8A682A4002D04B68D5
:1031F800304698471CB1236821461C46F2E723460F
:10320800FAE7F8B51F46044640680E461546FFF72C
:10321800F3FE112F07D101212B0501FA06F104D580
:1032280063685B6899610020F8BD2046FFF7AEFE31
:10323800F9E730B5036813600579046804EBC50441
:10324800A34202D36FF0010030BD5C798C4201D0FB
:103258000833F0E70020F7E74368C1F34B101B6819
:1032680001F01F01C05801238B40034214BF012302
:10327800002313700020704710B54368C1F34B104A
:103288001A6801F01F01845801238B40234383509F
:10329800002010BD10B54368C1F34B14186801F045
:1032A8001F01235801228A4023EA020323500020E9
:1032B80010BD38B504460D46FFF7DEFF2946204607
:1032C800FFF7E8FF002038BD82B003680193019B37
:1032D80043680193019B02B0704708B543681868BA
:1032E80002680368D9070368C2F3C00248BF42F006
:1032F80002029B07036848BF42F0040259070368AB
:1033080048BF42F02002DB0542BF6FF4807342F0F1
:1033180008020360D10701D5FFF7D6FF930701D54F
:10332800FFF7D2FF510701D5FFF7CEFF930601D56E
:10333800FFF7CAFF104608BD37B502694368106831
:103348001C680D46D9688368DB68E3B101AA984711
:10335800002818DBE368019823F400431921E3608F
:10336800AA00AB0FA0FB0101FCF712FF6422B0FB1F
:10337800F2F102FB11031B013233B3FBF2F303EB4F
:1033880001139BB2A36003B030BD10B543681B683E
:1033980010201A681206FCD5EFF3118280F3128808
:1033A800BFF36F8F1C68240604D482F31188BFF31F
:1033B8006F8FEEE7596082F31188BFF36F8F10BDEE
:1033C80008B54368186803681A0701D5FFF77CFF3A
:1033D80003689B0643BF43680B7000204FF0FF3023
:1033E80008BD03695B681B680B6043681B68DB6882
:1033F80003F4C063B3F5806F2FD0A3F5C06CDCF184
:10340800000343EB0C030B7143681B681B6903F44F
:103418004053B3F5805F22D0B3F5405F21D0002B35
:103428000CBF012303234B7143681B68DA68DB6810
:10343800D20403F4C06316D5002B14BF032304235E
:103448008B7143681B685B6903F44073A3F5407292
:1034580053425341CB71002070470223D3E7002326
:10346800E1E70223DFE7002B14BF02230323E7E78A
:1034780038B5044648B1FEF7B1FA602305465C4307
:10348800FEF7ACFA431BA342FAD338BD704740B1EC
:10349800C368587810F001001EBF1878B0FA80F0A1
:1034A80040097047EFF31183102383F31288BFF3A9
:1034B8006F8FFEE708B5FFF7F5FF10B543690446BF
:1034C80033B90020E268537843F00103537010BD0C
:1034D80098470028F5D00028B8BF4042E368FF2885
:1034E800A8BFFF201870EDE700F0C8B800F0B8B822
:1034F80008B51024EFF3118384F31288BFF36F8F9C
:10350800FFF764FCF6E7D0E9003213605A60002345
:10351800C0E90033704708B5FFF7F5FF437B23F098
:10352800020343730023836008BD10B5EFF31184D1
:10353800102383F31288BFF36F8FFEF707FD84F320
:103548001188BFF36F8F10BD10B50146EFF31184DA
:10355800102383F31288BFF36F8F437B13F0280F78
:103568000AD183680BB1FFF7D6FF4B7B23F0040326
:103578004B730846FEF7EAFC84F31188BFF36F8F9C
:1035880010BD01211838FFF7DFBF38B504460D46D6
:10359800FEF74AFEB5F1FF3F08BFB4F1FF3F03460F
:1035A800204614D013F109004FEAE37141F10001FC
:1035B8000A2871F100030BD36FF00A0383424FF01E
:1035C80004038B4106D30A220023FCF7E1FD38BD32
:1035D8000020FCE76FF00040F9E708B50246FEF767
:1035E800C7FF70B1D0E904319B1A61EBE272B3F105
:1035F800004F72F1000104DA002AACBF184600201F
:1036080008BD6FF00040FBE738B50246EFF31185BF
:10361800102383F31288BFF36F8F0368CBB1FEF7D3
:10362800A7FF04461046FEF7B5FF00224FF00043FF
:103638008442C0E9042306D1FEF7A2FFFFF7CDFFBD
:103648000021FEF731F9002085F31188BFF36F8F51
:1036580038BD6FF01500F7E708B5FFF7A7F808BD04
:103668000A44914200F1FF3300D1704710B511F8B8
:10367800014B03F8014F9142F9D110BD02440346B2
:10368800934200D1704703F8011BF9E710B50139DF
:10369800044632B111F8013F00F8013B013A002B12
:1036A800F7D10021FFF7EAFF204610BD10B502460A
:1036B80001448A42134603D01C780132002CF8D109
:1036C800181A10BDF0B5C3F137070446FFB203F06E
:1036D8001F031046082BE6B233D0102B3ED06508E6
:1036E800A40844EA817445EAC1752D194FEA91028C
:1036F80042EB5102290941EA02716D1842EB12129C
:10370800290A41EA02616D1842EB1222290C41EAAA
:1037180002416D1842EB1242AD1842F10002EC086A
:1037280044EA4274D10804EB8402A6EB4205EDB2E8
:10373800092D0CD90134A5F10A0541F10001EDB2BA
:1037480012E0E40844EA417406F00705C908303578
:1037580054EA010200F8015BBCD1F0BD240944EA37
:10376800017406F00F050909092D84BFED19EDB2A2
:10377800EDE700000148006870470000C003002022
:0837880044CAFF7F01000000AC
:103790000000000018380008DD05000800000000E7
:1037A0000000000038380008000000001839000848
:1037B00000000000583900080000000058380008D8
:1037C000000000003839000800000000F838000848
:1037D00000000000D838000800000000B8380008D9
:1037E0000000000098380008000000007838000849
:1037F0000000000078390008000000009839000837
:10380000291300080000000019180008000000003B
:08381000990E00080000000001
:103818005E3F0008000000009C3C000856000020A5
:1038280000000000A11100080000000000000000D6
:10383800DB3F0008DC3D00088C3C000868000020E5
:103848000000000000000000000000000000000070
:10385800403F000800000000000000005400002065
:10386800E0030020250F0008000000000000000011
:103878006B3F0008F83C0008683C0008580000202E
:103888006004002029140008000000000000000067
:10389800793F00080C3D0008683C00085A000020E9
:1038A8007404002029140008000000000000000033
:1038B800873F0008203D0008683C00085C000020A5
:1038C80088040020291400080000000000000000FF
:1038D800953F0008343D0008683C00085E00002061
:1038E8009C040020291400080000000000000000CB
:1038F800A33F0008483D0008683C0008600000201D
:10390800B004002029140008000000000000000096
:10391800B13F00085C3D0008683C000862000020D8
:10392800C404002029140008000000000000000062
:10393800BF3F0008703D0008683C00086400002094
:10394800D80400202914000800000000000000002E
:10395800CD3F0008843D0008683C00086600002050
:10396800EC040020291400080000000000000000FA
:10397800EC3F0008E03D0008B83C00086A00002061
:1039880014000020191700080000000000000000C3
:10399800FC3F00082C3E0008B83C00086C000020E2
:1039A8002400002019170008000000000000000093
:1039B80000000000BF2D000800000000BF2D000817
:1039C80000000000BF2D000800000000BF2D000807
:1039D80000000000BF2D000800000000BF2D0008F7
:1039E8003E3F0008BD0E00083C3F0008BD0E000821
:1039F8003A3F0008BD0E0008383F0008BD0E000819
:103A0800363F0008BD0E000800000000BF2D00086A
:103A180000000000BF2D000800000000BF2D0008B6
:103A280000000000BF2D000800000000BF2D0008A6
:103A380000000000BF2D000800000000BF2D000896
:103A480000000000BF2D000800000000BF2D000886
:103A580000000000BF2D000800000000BF2D000876
:103A680000000000BF2D0008343F0008BD0E00080C
:103A780000000000BF2D000800000000BF2D000856
:103A880000000000BF2D000800000000BF2D000846
:103A980000000000BF2D000800000000BF2D000836
:103AA80000000000BF2D000800000000BF2D000826
:103AB80000000000BF2D000800000000BF2D000816
:103AC80000000000BF2D000800000000BF2D000806
:103AD80000000000BF2D000800000000BF2D0008F6
:103AE80000000000BF2D000800000000BF2D0008E6
:103AF800323F0008BD0E000800000000BF2D00087E
:103B080000000000BF2D000800000000BF2D0008C5
:103B180000000000BF2D000800000000BF2D0008B5
:103B280000000000BF2D000800000000BF2D0008A5
:103B380000000000BF2D000800000000BF2D000895
:103B480000000000BF2D000800000000BF2D000885
:103B580000000000BF2D000800000000BF2D000875
:103B680000000000BF2D000800000000BF2D000865
:103B780000000000BF2D000800000000BF2D000855
:103B880000000000BF2D000800000000BF2D000845
:103B980000000000BF2D000800000000BF2D000835
:103BA80000000000BF2D000800000000BF2D000825
:103BB80000000000BF2D000800000000BF2D000815
:103BC80000000000BF2D000800000000BF2D000805
:103BD80000000000BF2D000800000000BF2D0008F5
:103BE80000000000BF2D000800000000BF2D0008E5
:103BF80000000000BF2D000800000000BF2D0008D5
:103C080000000000BF2D000800000000BF2D0008C4
:103C180000000000BF2D000800000000BF2D0008B4
:103C280000000000BF2D000800000000BF2D0008A4
:103C380000000000BF2D000800000000BF2D000894
:103C480000000000BF2D000800000000BF2D000884
:103C580000000000BF2D000800000000BF2D000874
:103C6800073100086D2F0008792F00088B2F0008F6
:103C7800952F0008A12F000879130008AF2F00081E
:043C88000000000038
:103C8C0061320008813200089D320008BB32000806
:103C9C00552E0008992E000800000000F9100008AD
:0C3CAC00332F000800000000E12E00088B
:103CB800C933000893330008E3320008DD15000813
:043CC800EB330008D2
:103CCC00000000200000000000000B0602000000B5
:103CDC00E03C000800000008233F00082400020616
:103CEC00000000202B3F000820000B11FFFF0000FC
:103CFC00001C0240070000003000000080000000A3
:103D0C00FFFF000000180240060000003000000019
:103D1C0040000000FFFF00000014024005000000FE
:103D2C003000000020000000FFFF000000100240E7
:103D3C00040000003000000010000000FFFF000035
:103D4C00000C0240030000003000000008000000DE
:103D5C00FFFF0000000802400200000030000000DD
:103D6C0004000000FFFF00000004024001000000FE
:103D7C003000000002000000FFFF000000000240C5
:103D8C00000000003000000001000000583900085D
:103D9C003839000818390008F8380008D8380008F5
:103DAC00B83800089838000878380008000000007F
:103DBC0000000000000000000000000000000000F7
:103DCC0000000000000000000000000000000000E7
:103DDC00003802400044004038380008110400004C
:103DEC00043E00080100000000000000000000007C
:103DFC00000000000C3E0008400000000000020023
:103E0C00143E0008010000001C3E000802000000E7
:103E1C0047000000000200006700000000000000E6
:103E2C00001001403838000884040000503E00089F
:103E3C000100000000000000000000000000000075
:103E4C00583E00084400000010000000603E0008CE
:103E5C0001000000683E000802000000C7020000DC
:103E6C0000020000E702000000000000903700088C
:103E7C009037000808380008103800081838000877
:103E8C00183800080010000000304C4F57203A2022
:103E9C0025640A000A3D3D3D3D3D3D3D3D3D3D3DDA
:103EAC003D3D3D3D3D3D3D3D3D3D3D3D3D3D3D3D36
:103EBC003D3D3D3D0A004849474820544852454144
:103ECC00442052454144590A0048494748203A2069
:103EDC0025640A004849474820544852454144202B
:103EEC00534C454550494E472E2E2E0A0A000A3D8A
:103EFC003D3D3D3D20507265656D70746976652061
:103F0C005363686564756C696E672044656D6F20DA
:103F1C003D3D3D3D3D0A00464C4153485F3000530A
:103F2C0052414D5F30000A060505040103010201F0
:103F3C0001010001696E746572727570742D636F86
:103F4C006E74726F6C6C6572403430303133633028
:103F5C0030007263634034303032333830300067B5
:103F6C0070696F40343030323163303000677069C3
:103F7C006F403430303231383030006770696F4008
:103F8C003430303231343030006770696F40343047
:103F9C00303231303030006770696F40343030323D
:103FAC0030633030006770696F40343030323038F5
:103FBC003030006770696F4034303032303430301C
:103FCC00006770696F4034303032303030300072FE
:103FDC00657365742D636F6E74726F6C6C657200B3
:103FEC0073657269616C4034303030343430300079
:103FFC0073657269616C403430303131303030006F
:10400C00000000000000000001020304060708097C
:10401C0069646C65006D61696E002A2A2A20426F02
:10402C006F74696E67205A6570687972204F5320DF
:10403C006275696C642076342E322E30202A2A2A3E
:10404C000A00286E756C6C29002A666C6F61742AE4
:04405C000000000060
:104060007D2D0008000000000F2E00080000000059
:1040700000000000000000001C00002000C2010041
:1040800000010300000000002C00002000C201001D
:10409000000103000024F400C80000003C000020E0
:1040A0003C000020FFFFFFFFFFFFFFFFFFFFFFFFC0
:0440B000FFFFFFFF10
:1040B40000000000000000000000000000000000FC
:0C40C400000000000000000000000000F0
:0440D00015E015E002
:04000005080009499D
:00000001FF
